{
	"contracts/Lottery.sol": {
		"Lottery": {
			"abi": [
				{
					"inputs": [],
					"stateMutability": "nonpayable",
					"type": "constructor"
				},
				{
					"inputs": [],
					"name": "getBalance",
					"outputs": [
						{
							"internalType": "uint256",
							"name": "",
							"type": "uint256"
						}
					],
					"stateMutability": "view",
					"type": "function"
				},
				{
					"inputs": [],
					"name": "owner",
					"outputs": [
						{
							"internalType": "address",
							"name": "",
							"type": "address"
						}
					],
					"stateMutability": "view",
					"type": "function"
				},
				{
					"inputs": [],
					"name": "participate",
					"outputs": [],
					"stateMutability": "payable",
					"type": "function"
				},
				{
					"inputs": [
						{
							"internalType": "uint256",
							"name": "",
							"type": "uint256"
						}
					],
					"name": "players",
					"outputs": [
						{
							"internalType": "address payable",
							"name": "",
							"type": "address"
						}
					],
					"stateMutability": "view",
					"type": "function"
				},
				{
					"inputs": [],
					"name": "selectWinner",
					"outputs": [],
					"stateMutability": "nonpayable",
					"type": "function"
				},
				{
					"inputs": [],
					"name": "winner",
					"outputs": [
						{
							"internalType": "address payable",
							"name": "",
							"type": "address"
						}
					],
					"stateMutability": "view",
					"type": "function"
				}
			],
			"devdoc": {
				"kind": "dev",
				"methods": {},
				"version": 1
			},
			"evm": {
				"assembly": "    /* \"contracts/Lottery.sol\":62:1214  contract Lottery{... */\n  mstore(0x40, 0x80)\n    /* \"contracts/Lottery.sol\":242:290  constructor() {... */\n  callvalue\n  dup1\n  iszero\n  tag_1\n  jumpi\n  0x00\n  dup1\n  revert\ntag_1:\n  pop\n    /* \"contracts/Lottery.sol\":272:282  msg.sender */\n  caller\n    /* \"contracts/Lottery.sol\":265:270  owner */\n  0x00\n  dup1\n    /* \"contracts/Lottery.sol\":265:282  owner= msg.sender */\n  0x0100\n  exp\n  dup2\n  sload\n  dup2\n  0xffffffffffffffffffffffffffffffffffffffff\n  mul\n  not\n  and\n  swap1\n  dup4\n  0xffffffffffffffffffffffffffffffffffffffff\n  and\n  mul\n  or\n  swap1\n  sstore\n  pop\n    /* \"contracts/Lottery.sol\":62:1214  contract Lottery{... */\n  dataSize(sub_0)\n  dup1\n  dataOffset(sub_0)\n  0x00\n  codecopy\n  0x00\n  return\nstop\n\nsub_0: assembly {\n        /* \"contracts/Lottery.sol\":62:1214  contract Lottery{... */\n      mstore(0x40, 0x80)\n      jumpi(tag_1, lt(calldatasize, 0x04))\n      shr(0xe0, calldataload(0x00))\n      dup1\n      0x12065fe0\n      eq\n      tag_2\n      jumpi\n      dup1\n      0x33a99e04\n      eq\n      tag_3\n      jumpi\n      dup1\n      0x8da5cb5b\n      eq\n      tag_4\n      jumpi\n      dup1\n      0xd11711a2\n      eq\n      tag_5\n      jumpi\n      dup1\n      0xdfbf53ae\n      eq\n      tag_6\n      jumpi\n      dup1\n      0xf71d96cb\n      eq\n      tag_7\n      jumpi\n    tag_1:\n      0x00\n      dup1\n      revert\n        /* \"contracts/Lottery.sol\":477:637  function getBalance() public view returns (uint){... */\n    tag_2:\n      callvalue\n      dup1\n      iszero\n      tag_8\n      jumpi\n      0x00\n      dup1\n      revert\n    tag_8:\n      pop\n      tag_9\n      tag_10\n      jump\t// in\n    tag_9:\n      mload(0x40)\n      tag_11\n      swap2\n      swap1\n      tag_12\n      jump\t// in\n    tag_11:\n      mload(0x40)\n      dup1\n      swap2\n      sub\n      swap1\n      return\n        /* \"contracts/Lottery.sol\":806:1211  function selectWinner() public{  ... */\n    tag_3:\n      callvalue\n      dup1\n      iszero\n      tag_13\n      jumpi\n      0x00\n      dup1\n      revert\n    tag_13:\n      pop\n      tag_14\n      tag_15\n      jump\t// in\n    tag_14:\n      stop\n        /* \"contracts/Lottery.sol\":136:156  address public owner */\n    tag_4:\n      callvalue\n      dup1\n      iszero\n      tag_16\n      jumpi\n      0x00\n      dup1\n      revert\n    tag_16:\n      pop\n      tag_17\n      tag_18\n      jump\t// in\n    tag_17:\n      mload(0x40)\n      tag_19\n      swap2\n      swap1\n      tag_20\n      jump\t// in\n    tag_19:\n      mload(0x40)\n      dup1\n      swap2\n      sub\n      swap1\n      return\n        /* \"contracts/Lottery.sol\":298:469  function participate() public payable {... */\n    tag_5:\n      tag_21\n      tag_22\n      jump\t// in\n    tag_21:\n      stop\n        /* \"contracts/Lottery.sol\":202:231  address payable public winner */\n    tag_6:\n      callvalue\n      dup1\n      iszero\n      tag_23\n      jumpi\n      0x00\n      dup1\n      revert\n    tag_23:\n      pop\n      tag_24\n      tag_25\n      jump\t// in\n    tag_24:\n      mload(0x40)\n      tag_26\n      swap2\n      swap1\n      tag_27\n      jump\t// in\n    tag_26:\n      mload(0x40)\n      dup1\n      swap2\n      sub\n      swap1\n      return\n        /* \"contracts/Lottery.sol\":163:195  address payable[] public players */\n    tag_7:\n      callvalue\n      dup1\n      iszero\n      tag_28\n      jumpi\n      0x00\n      dup1\n      revert\n    tag_28:\n      pop\n      tag_29\n      0x04\n      dup1\n      calldatasize\n      sub\n      dup2\n      add\n      swap1\n      tag_30\n      swap2\n      swap1\n      tag_31\n      jump\t// in\n    tag_30:\n      tag_32\n      jump\t// in\n    tag_29:\n      mload(0x40)\n      tag_33\n      swap2\n      swap1\n      tag_27\n      jump\t// in\n    tag_33:\n      mload(0x40)\n      dup1\n      swap2\n      sub\n      swap1\n      return\n        /* \"contracts/Lottery.sol\":477:637  function getBalance() public view returns (uint){... */\n    tag_10:\n        /* \"contracts/Lottery.sol\":520:524  uint */\n      0x00\n        /* \"contracts/Lottery.sol\":556:561  owner */\n      dup1\n      0x00\n      swap1\n      sload\n      swap1\n      0x0100\n      exp\n      swap1\n      div\n      0xffffffffffffffffffffffffffffffffffffffff\n      and\n        /* \"contracts/Lottery.sol\":544:561  msg.sender==owner */\n      0xffffffffffffffffffffffffffffffffffffffff\n      and\n        /* \"contracts/Lottery.sol\":544:554  msg.sender */\n      caller\n        /* \"contracts/Lottery.sol\":544:561  msg.sender==owner */\n      0xffffffffffffffffffffffffffffffffffffffff\n      and\n      eq\n        /* \"contracts/Lottery.sol\":536:587  require(msg.sender==owner,\"you are not the Owner!\") */\n      tag_35\n      jumpi\n      mload(0x40)\n      0x08c379a000000000000000000000000000000000000000000000000000000000\n      dup2\n      mstore\n      0x04\n      add\n      tag_36\n      swap1\n      tag_37\n      jump\t// in\n    tag_36:\n      mload(0x40)\n      dup1\n      swap2\n      sub\n      swap1\n      revert\n    tag_35:\n        /* \"contracts/Lottery.sol\":608:629  address(this).balance */\n      selfbalance\n        /* \"contracts/Lottery.sol\":600:629  return  address(this).balance */\n      swap1\n      pop\n        /* \"contracts/Lottery.sol\":477:637  function getBalance() public view returns (uint){... */\n      swap1\n      jump\t// out\n        /* \"contracts/Lottery.sol\":806:1211  function selectWinner() public{  ... */\n    tag_15:\n        /* \"contracts/Lottery.sol\":864:874  msg.sender */\n      caller\n        /* \"contracts/Lottery.sol\":857:874  owner==msg.sender */\n      0xffffffffffffffffffffffffffffffffffffffff\n      and\n        /* \"contracts/Lottery.sol\":857:862  owner */\n      0x00\n      dup1\n      sload\n      swap1\n      0x0100\n      exp\n      swap1\n      div\n      0xffffffffffffffffffffffffffffffffffffffff\n      and\n        /* \"contracts/Lottery.sol\":857:874  owner==msg.sender */\n      0xffffffffffffffffffffffffffffffffffffffff\n      and\n      eq\n        /* \"contracts/Lottery.sol\":849:899  require(owner==msg.sender,\"you are not the Owner\") */\n      tag_39\n      jumpi\n      mload(0x40)\n      0x08c379a000000000000000000000000000000000000000000000000000000000\n      dup2\n      mstore\n      0x04\n      add\n      tag_40\n      swap1\n      tag_41\n      jump\t// in\n    tag_40:\n      mload(0x40)\n      dup1\n      swap2\n      sub\n      swap1\n      revert\n    tag_39:\n        /* \"contracts/Lottery.sol\":934:935  2 */\n      0x02\n        /* \"contracts/Lottery.sol\":918:925  players */\n      0x01\n        /* \"contracts/Lottery.sol\":918:932  players.length */\n      dup1\n      sload\n      swap1\n      pop\n        /* \"contracts/Lottery.sol\":918:935  players.length>=2 */\n      lt\n      iszero\n        /* \"contracts/Lottery.sol\":910:965  require(players.length>=2,\"Players are less than '2' \") */\n      tag_42\n      jumpi\n      mload(0x40)\n      0x08c379a000000000000000000000000000000000000000000000000000000000\n      dup2\n      mstore\n      0x04\n      add\n      tag_43\n      swap1\n      tag_44\n      jump\t// in\n    tag_43:\n      mload(0x40)\n      dup1\n      swap2\n      sub\n      swap1\n      revert\n    tag_42:\n        /* \"contracts/Lottery.sol\":974:982  uint who */\n      0x00\n        /* \"contracts/Lottery.sol\":985:993  random() */\n      tag_45\n        /* \"contracts/Lottery.sol\":985:991  random */\n      tag_46\n        /* \"contracts/Lottery.sol\":985:993  random() */\n      jump\t// in\n    tag_45:\n        /* \"contracts/Lottery.sol\":974:993  uint who = random() */\n      swap1\n      pop\n        /* \"contracts/Lottery.sol\":1001:1011  uint index */\n      0x00\n        /* \"contracts/Lottery.sol\":1018:1025  players */\n      0x01\n        /* \"contracts/Lottery.sol\":1018:1032  players.length */\n      dup1\n      sload\n      swap1\n      pop\n        /* \"contracts/Lottery.sol\":1014:1017  who */\n      dup3\n        /* \"contracts/Lottery.sol\":1014:1032  who%players.length */\n      tag_47\n      swap2\n      swap1\n      tag_48\n      jump\t// in\n    tag_47:\n        /* \"contracts/Lottery.sol\":1001:1032  uint index = who%players.length */\n      swap1\n      pop\n        /* \"contracts/Lottery.sol\":1052:1059  players */\n      0x01\n        /* \"contracts/Lottery.sol\":1060:1065  index */\n      dup2\n        /* \"contracts/Lottery.sol\":1052:1066  players[index] */\n      dup2\n      sload\n      dup2\n      lt\n      tag_49\n      jumpi\n      tag_50\n      tag_51\n      jump\t// in\n    tag_50:\n    tag_49:\n      swap1\n      0x00\n      mstore\n      keccak256(0x00, 0x20)\n      add\n      0x00\n      swap1\n      sload\n      swap1\n      0x0100\n      exp\n      swap1\n      div\n      0xffffffffffffffffffffffffffffffffffffffff\n      and\n        /* \"contracts/Lottery.sol\":1045:1051  winner */\n      0x02\n      0x00\n        /* \"contracts/Lottery.sol\":1045:1066  winner=players[index] */\n      0x0100\n      exp\n      dup2\n      sload\n      dup2\n      0xffffffffffffffffffffffffffffffffffffffff\n      mul\n      not\n      and\n      swap1\n      dup4\n      0xffffffffffffffffffffffffffffffffffffffff\n      and\n      mul\n      or\n      swap1\n      sstore\n      pop\n        /* \"contracts/Lottery.sol\":1079:1085  winner */\n      0x02\n      0x00\n      swap1\n      sload\n      swap1\n      0x0100\n      exp\n      swap1\n      div\n      0xffffffffffffffffffffffffffffffffffffffff\n      and\n        /* \"contracts/Lottery.sol\":1079:1094  winner.transfer */\n      0xffffffffffffffffffffffffffffffffffffffff\n      and\n        /* \"contracts/Lottery.sol\":1079:1108  winner.transfer(getBalance()) */\n      0x08fc\n        /* \"contracts/Lottery.sol\":1095:1107  getBalance() */\n      tag_53\n        /* \"contracts/Lottery.sol\":1095:1105  getBalance */\n      tag_10\n        /* \"contracts/Lottery.sol\":1095:1107  getBalance() */\n      jump\t// in\n    tag_53:\n        /* \"contracts/Lottery.sol\":1079:1108  winner.transfer(getBalance()) */\n      swap1\n      dup2\n      iszero\n      mul\n      swap1\n      mload(0x40)\n      0x00\n      mload(0x40)\n      dup1\n      dup4\n      sub\n      dup2\n      dup6\n      dup9\n      dup9\n      call\n      swap4\n      pop\n      pop\n      pop\n      pop\n      iszero\n      dup1\n      iszero\n      tag_55\n      jumpi\n      returndatasize\n      0x00\n      dup1\n      returndatacopy\n      revert(0x00, returndatasize)\n    tag_55:\n      pop\n        /* \"contracts/Lottery.sol\":1154:1155  0 */\n      0x00\n        /* \"contracts/Lottery.sol\":1131:1156  new address payable[] (0) */\n      0xffffffffffffffff\n      dup2\n      gt\n      iszero\n      tag_56\n      jumpi\n      tag_57\n      tag_58\n      jump\t// in\n    tag_57:\n    tag_56:\n      mload(0x40)\n      swap1\n      dup1\n      dup3\n      mstore\n      dup1\n      0x20\n      mul\n      0x20\n      add\n      dup3\n      add\n      0x40\n      mstore\n      dup1\n      iszero\n      tag_59\n      jumpi\n      dup2\n      0x20\n      add\n      0x20\n      dup3\n      mul\n      dup1\n      calldatasize\n      dup4\n      calldatacopy\n      dup1\n      dup3\n      add\n      swap2\n      pop\n      pop\n      swap1\n      pop\n    tag_59:\n      pop\n        /* \"contracts/Lottery.sol\":1121:1128  players */\n      0x01\n        /* \"contracts/Lottery.sol\":1121:1156  players = new address payable[] (0) */\n      swap1\n      dup1\n      mload\n      swap1\n      0x20\n      add\n      swap1\n      tag_60\n      swap3\n      swap2\n      swap1\n      tag_61\n      jump\t// in\n    tag_60:\n      pop\n        /* \"contracts/Lottery.sol\":836:1211  {  ... */\n      pop\n      pop\n        /* \"contracts/Lottery.sol\":806:1211  function selectWinner() public{  ... */\n      jump\t// out\n        /* \"contracts/Lottery.sol\":136:156  address public owner */\n    tag_18:\n      0x00\n      dup1\n      sload\n      swap1\n      0x0100\n      exp\n      swap1\n      div\n      0xffffffffffffffffffffffffffffffffffffffff\n      and\n      dup2\n      jump\t// out\n        /* \"contracts/Lottery.sol\":298:469  function participate() public payable {... */\n    tag_22:\n        /* \"contracts/Lottery.sol\":377:384  100 wei */\n      0x64\n        /* \"contracts/Lottery.sol\":365:374  msg.value */\n      callvalue\n        /* \"contracts/Lottery.sol\":365:384  msg.value== 100 wei */\n      eq\n        /* \"contracts/Lottery.sol\":357:416  require(msg.value== 100 wei,\" you don't have enough ether\") */\n      tag_63\n      jumpi\n      mload(0x40)\n      0x08c379a000000000000000000000000000000000000000000000000000000000\n      dup2\n      mstore\n      0x04\n      add\n      tag_64\n      swap1\n      tag_65\n      jump\t// in\n    tag_64:\n      mload(0x40)\n      dup1\n      swap2\n      sub\n      swap1\n      revert\n    tag_63:\n        /* \"contracts/Lottery.sol\":427:434  players */\n      0x01\n        /* \"contracts/Lottery.sol\":449:459  msg.sender */\n      caller\n        /* \"contracts/Lottery.sol\":427:461  players.push(payable (msg.sender)) */\n      swap1\n      dup1\n      0x01\n      dup2\n      sload\n      add\n      dup1\n      dup3\n      sstore\n      dup1\n      swap2\n      pop\n      pop\n      0x01\n      swap1\n      sub\n      swap1\n      0x00\n      mstore\n      keccak256(0x00, 0x20)\n      add\n      0x00\n      swap1\n      swap2\n      swap1\n      swap2\n      swap1\n      swap2\n      0x0100\n      exp\n      dup2\n      sload\n      dup2\n      0xffffffffffffffffffffffffffffffffffffffff\n      mul\n      not\n      and\n      swap1\n      dup4\n      0xffffffffffffffffffffffffffffffffffffffff\n      and\n      mul\n      or\n      swap1\n      sstore\n      pop\n        /* \"contracts/Lottery.sol\":298:469  function participate() public payable {... */\n      jump\t// out\n        /* \"contracts/Lottery.sol\":202:231  address payable public winner */\n    tag_25:\n      0x02\n      0x00\n      swap1\n      sload\n      swap1\n      0x0100\n      exp\n      swap1\n      div\n      0xffffffffffffffffffffffffffffffffffffffff\n      and\n      dup2\n      jump\t// out\n        /* \"contracts/Lottery.sol\":163:195  address payable[] public players */\n    tag_32:\n      0x01\n      dup2\n      dup2\n      sload\n      dup2\n      lt\n      tag_67\n      jumpi\n      0x00\n      dup1\n      revert\n    tag_67:\n      swap1\n      0x00\n      mstore\n      keccak256(0x00, 0x20)\n      add\n      0x00\n      swap2\n      pop\n      sload\n      swap1\n      0x0100\n      exp\n      swap1\n      div\n      0xffffffffffffffffffffffffffffffffffffffff\n      and\n      dup2\n      jump\t// out\n        /* \"contracts/Lottery.sol\":645:798  function random()internal view returns(uint) {... */\n    tag_46:\n        /* \"contracts/Lottery.sol\":684:688  uint */\n      0x00\n        /* \"contracts/Lottery.sol\":740:756  block.difficulty */\n      prevrandao\n        /* \"contracts/Lottery.sol\":757:772  block.timestamp */\n      timestamp\n        /* \"contracts/Lottery.sol\":773:780  players */\n      0x01\n        /* \"contracts/Lottery.sol\":773:787  players.length */\n      dup1\n      sload\n      swap1\n      pop\n        /* \"contracts/Lottery.sol\":723:788  abi.encodePacked(block.difficulty,block.timestamp,players.length) */\n      add(0x20, mload(0x40))\n      tag_70\n      swap4\n      swap3\n      swap2\n      swap1\n      tag_71\n      jump\t// in\n    tag_70:\n      mload(0x40)\n      0x20\n      dup2\n      dup4\n      sub\n      sub\n      dup2\n      mstore\n      swap1\n      0x40\n      mstore\n        /* \"contracts/Lottery.sol\":713:789  keccak256(abi.encodePacked(block.difficulty,block.timestamp,players.length)) */\n      dup1\n      mload\n      swap1\n      0x20\n      add\n      keccak256\n        /* \"contracts/Lottery.sol\":705:790  uint  ( keccak256(abi.encodePacked(block.difficulty,block.timestamp,players.length))) */\n      0x00\n      shr\n        /* \"contracts/Lottery.sol\":698:790  return uint  ( keccak256(abi.encodePacked(block.difficulty,block.timestamp,players.length))) */\n      swap1\n      pop\n        /* \"contracts/Lottery.sol\":645:798  function random()internal view returns(uint) {... */\n      swap1\n      jump\t// out\n    tag_61:\n      dup3\n      dup1\n      sload\n      dup3\n      dup3\n      sstore\n      swap1\n      0x00\n      mstore\n      keccak256(0x00, 0x20)\n      swap1\n      dup2\n      add\n      swap3\n      dup3\n      iszero\n      tag_72\n      jumpi\n      swap2\n      0x20\n      mul\n      dup3\n      add\n    tag_73:\n      dup3\n      dup2\n      gt\n      iszero\n      tag_74\n      jumpi\n      dup3\n      mload\n      dup3\n      exp(0x0100, 0x00)\n      dup2\n      sload\n      dup2\n      0xffffffffffffffffffffffffffffffffffffffff\n      mul\n      not\n      and\n      swap1\n      dup4\n      0xffffffffffffffffffffffffffffffffffffffff\n      and\n      mul\n      or\n      swap1\n      sstore\n      pop\n      swap2\n      0x20\n      add\n      swap2\n      swap1\n      0x01\n      add\n      swap1\n      jump(tag_73)\n    tag_74:\n    tag_72:\n      pop\n      swap1\n      pop\n      tag_75\n      swap2\n      swap1\n      tag_76\n      jump\t// in\n    tag_75:\n      pop\n      swap1\n      jump\t// out\n    tag_76:\n    tag_77:\n      dup1\n      dup3\n      gt\n      iszero\n      tag_78\n      jumpi\n      0x00\n      dup2\n      0x00\n      swap1\n      sstore\n      pop\n      0x01\n      add\n      jump(tag_77)\n    tag_78:\n      pop\n      swap1\n      jump\t// out\n        /* \"#utility.yul\":7:84   */\n    tag_79:\n        /* \"#utility.yul\":44:51   */\n      0x00\n        /* \"#utility.yul\":73:78   */\n      dup2\n        /* \"#utility.yul\":62:78   */\n      swap1\n      pop\n        /* \"#utility.yul\":7:84   */\n      swap2\n      swap1\n      pop\n      jump\t// out\n        /* \"#utility.yul\":90:208   */\n    tag_80:\n        /* \"#utility.yul\":177:201   */\n      tag_106\n        /* \"#utility.yul\":195:200   */\n      dup2\n        /* \"#utility.yul\":177:201   */\n      tag_79\n      jump\t// in\n    tag_106:\n        /* \"#utility.yul\":172:175   */\n      dup3\n        /* \"#utility.yul\":165:202   */\n      mstore\n        /* \"#utility.yul\":90:208   */\n      pop\n      pop\n      jump\t// out\n        /* \"#utility.yul\":214:436   */\n    tag_12:\n        /* \"#utility.yul\":307:311   */\n      0x00\n        /* \"#utility.yul\":345:347   */\n      0x20\n        /* \"#utility.yul\":334:343   */\n      dup3\n        /* \"#utility.yul\":330:348   */\n      add\n        /* \"#utility.yul\":322:348   */\n      swap1\n      pop\n        /* \"#utility.yul\":358:429   */\n      tag_108\n        /* \"#utility.yul\":426:427   */\n      0x00\n        /* \"#utility.yul\":415:424   */\n      dup4\n        /* \"#utility.yul\":411:428   */\n      add\n        /* \"#utility.yul\":402:408   */\n      dup5\n        /* \"#utility.yul\":358:429   */\n      tag_80\n      jump\t// in\n    tag_108:\n        /* \"#utility.yul\":214:436   */\n      swap3\n      swap2\n      pop\n      pop\n      jump\t// out\n        /* \"#utility.yul\":442:568   */\n    tag_81:\n        /* \"#utility.yul\":479:486   */\n      0x00\n        /* \"#utility.yul\":519:561   */\n      0xffffffffffffffffffffffffffffffffffffffff\n        /* \"#utility.yul\":512:517   */\n      dup3\n        /* \"#utility.yul\":508:562   */\n      and\n        /* \"#utility.yul\":497:562   */\n      swap1\n      pop\n        /* \"#utility.yul\":442:568   */\n      swap2\n      swap1\n      pop\n      jump\t// out\n        /* \"#utility.yul\":574:670   */\n    tag_82:\n        /* \"#utility.yul\":611:618   */\n      0x00\n        /* \"#utility.yul\":640:664   */\n      tag_111\n        /* \"#utility.yul\":658:663   */\n      dup3\n        /* \"#utility.yul\":640:664   */\n      tag_81\n      jump\t// in\n    tag_111:\n        /* \"#utility.yul\":629:664   */\n      swap1\n      pop\n        /* \"#utility.yul\":574:670   */\n      swap2\n      swap1\n      pop\n      jump\t// out\n        /* \"#utility.yul\":676:794   */\n    tag_83:\n        /* \"#utility.yul\":763:787   */\n      tag_113\n        /* \"#utility.yul\":781:786   */\n      dup2\n        /* \"#utility.yul\":763:787   */\n      tag_82\n      jump\t// in\n    tag_113:\n        /* \"#utility.yul\":758:761   */\n      dup3\n        /* \"#utility.yul\":751:788   */\n      mstore\n        /* \"#utility.yul\":676:794   */\n      pop\n      pop\n      jump\t// out\n        /* \"#utility.yul\":800:1022   */\n    tag_20:\n        /* \"#utility.yul\":893:897   */\n      0x00\n        /* \"#utility.yul\":931:933   */\n      0x20\n        /* \"#utility.yul\":920:929   */\n      dup3\n        /* \"#utility.yul\":916:934   */\n      add\n        /* \"#utility.yul\":908:934   */\n      swap1\n      pop\n        /* \"#utility.yul\":944:1015   */\n      tag_115\n        /* \"#utility.yul\":1012:1013   */\n      0x00\n        /* \"#utility.yul\":1001:1010   */\n      dup4\n        /* \"#utility.yul\":997:1014   */\n      add\n        /* \"#utility.yul\":988:994   */\n      dup5\n        /* \"#utility.yul\":944:1015   */\n      tag_83\n      jump\t// in\n    tag_115:\n        /* \"#utility.yul\":800:1022   */\n      swap3\n      swap2\n      pop\n      pop\n      jump\t// out\n        /* \"#utility.yul\":1028:1132   */\n    tag_84:\n        /* \"#utility.yul\":1073:1080   */\n      0x00\n        /* \"#utility.yul\":1102:1126   */\n      tag_117\n        /* \"#utility.yul\":1120:1125   */\n      dup3\n        /* \"#utility.yul\":1102:1126   */\n      tag_81\n      jump\t// in\n    tag_117:\n        /* \"#utility.yul\":1091:1126   */\n      swap1\n      pop\n        /* \"#utility.yul\":1028:1132   */\n      swap2\n      swap1\n      pop\n      jump\t// out\n        /* \"#utility.yul\":1138:1280   */\n    tag_85:\n        /* \"#utility.yul\":1241:1273   */\n      tag_119\n        /* \"#utility.yul\":1267:1272   */\n      dup2\n        /* \"#utility.yul\":1241:1273   */\n      tag_84\n      jump\t// in\n    tag_119:\n        /* \"#utility.yul\":1236:1239   */\n      dup3\n        /* \"#utility.yul\":1229:1274   */\n      mstore\n        /* \"#utility.yul\":1138:1280   */\n      pop\n      pop\n      jump\t// out\n        /* \"#utility.yul\":1286:1540   */\n    tag_27:\n        /* \"#utility.yul\":1395:1399   */\n      0x00\n        /* \"#utility.yul\":1433:1435   */\n      0x20\n        /* \"#utility.yul\":1422:1431   */\n      dup3\n        /* \"#utility.yul\":1418:1436   */\n      add\n        /* \"#utility.yul\":1410:1436   */\n      swap1\n      pop\n        /* \"#utility.yul\":1446:1533   */\n      tag_121\n        /* \"#utility.yul\":1530:1531   */\n      0x00\n        /* \"#utility.yul\":1519:1528   */\n      dup4\n        /* \"#utility.yul\":1515:1532   */\n      add\n        /* \"#utility.yul\":1506:1512   */\n      dup5\n        /* \"#utility.yul\":1446:1533   */\n      tag_85\n      jump\t// in\n    tag_121:\n        /* \"#utility.yul\":1286:1540   */\n      swap3\n      swap2\n      pop\n      pop\n      jump\t// out\n        /* \"#utility.yul\":1627:1744   */\n    tag_87:\n        /* \"#utility.yul\":1736:1737   */\n      0x00\n        /* \"#utility.yul\":1733:1734   */\n      dup1\n        /* \"#utility.yul\":1726:1738   */\n      revert\n        /* \"#utility.yul\":1873:1995   */\n    tag_89:\n        /* \"#utility.yul\":1946:1970   */\n      tag_126\n        /* \"#utility.yul\":1964:1969   */\n      dup2\n        /* \"#utility.yul\":1946:1970   */\n      tag_79\n      jump\t// in\n    tag_126:\n        /* \"#utility.yul\":1939:1944   */\n      dup2\n        /* \"#utility.yul\":1936:1971   */\n      eq\n        /* \"#utility.yul\":1926:1989   */\n      tag_127\n      jumpi\n        /* \"#utility.yul\":1985:1986   */\n      0x00\n        /* \"#utility.yul\":1982:1983   */\n      dup1\n        /* \"#utility.yul\":1975:1987   */\n      revert\n        /* \"#utility.yul\":1926:1989   */\n    tag_127:\n        /* \"#utility.yul\":1873:1995   */\n      pop\n      jump\t// out\n        /* \"#utility.yul\":2001:2140   */\n    tag_90:\n        /* \"#utility.yul\":2047:2052   */\n      0x00\n        /* \"#utility.yul\":2085:2091   */\n      dup2\n        /* \"#utility.yul\":2072:2092   */\n      calldataload\n        /* \"#utility.yul\":2063:2092   */\n      swap1\n      pop\n        /* \"#utility.yul\":2101:2134   */\n      tag_129\n        /* \"#utility.yul\":2128:2133   */\n      dup2\n        /* \"#utility.yul\":2101:2134   */\n      tag_89\n      jump\t// in\n    tag_129:\n        /* \"#utility.yul\":2001:2140   */\n      swap3\n      swap2\n      pop\n      pop\n      jump\t// out\n        /* \"#utility.yul\":2146:2475   */\n    tag_31:\n        /* \"#utility.yul\":2205:2211   */\n      0x00\n        /* \"#utility.yul\":2254:2256   */\n      0x20\n        /* \"#utility.yul\":2242:2251   */\n      dup3\n        /* \"#utility.yul\":2233:2240   */\n      dup5\n        /* \"#utility.yul\":2229:2252   */\n      sub\n        /* \"#utility.yul\":2225:2257   */\n      slt\n        /* \"#utility.yul\":2222:2341   */\n      iszero\n      tag_131\n      jumpi\n        /* \"#utility.yul\":2260:2339   */\n      tag_132\n      tag_87\n      jump\t// in\n    tag_132:\n        /* \"#utility.yul\":2222:2341   */\n    tag_131:\n        /* \"#utility.yul\":2380:2381   */\n      0x00\n        /* \"#utility.yul\":2405:2458   */\n      tag_133\n        /* \"#utility.yul\":2450:2457   */\n      dup5\n        /* \"#utility.yul\":2441:2447   */\n      dup3\n        /* \"#utility.yul\":2430:2439   */\n      dup6\n        /* \"#utility.yul\":2426:2448   */\n      add\n        /* \"#utility.yul\":2405:2458   */\n      tag_90\n      jump\t// in\n    tag_133:\n        /* \"#utility.yul\":2395:2458   */\n      swap2\n      pop\n        /* \"#utility.yul\":2351:2468   */\n      pop\n        /* \"#utility.yul\":2146:2475   */\n      swap3\n      swap2\n      pop\n      pop\n      jump\t// out\n        /* \"#utility.yul\":2481:2650   */\n    tag_91:\n        /* \"#utility.yul\":2565:2576   */\n      0x00\n        /* \"#utility.yul\":2599:2605   */\n      dup3\n        /* \"#utility.yul\":2594:2597   */\n      dup3\n        /* \"#utility.yul\":2587:2606   */\n      mstore\n        /* \"#utility.yul\":2639:2643   */\n      0x20\n        /* \"#utility.yul\":2634:2637   */\n      dup3\n        /* \"#utility.yul\":2630:2644   */\n      add\n        /* \"#utility.yul\":2615:2644   */\n      swap1\n      pop\n        /* \"#utility.yul\":2481:2650   */\n      swap3\n      swap2\n      pop\n      pop\n      jump\t// out\n        /* \"#utility.yul\":2656:2828   */\n    tag_92:\n        /* \"#utility.yul\":2796:2820   */\n      0x796f7520617265206e6f7420746865204f776e65722100000000000000000000\n        /* \"#utility.yul\":2792:2793   */\n      0x00\n        /* \"#utility.yul\":2784:2790   */\n      dup3\n        /* \"#utility.yul\":2780:2794   */\n      add\n        /* \"#utility.yul\":2773:2821   */\n      mstore\n        /* \"#utility.yul\":2656:2828   */\n      pop\n      jump\t// out\n        /* \"#utility.yul\":2834:3200   */\n    tag_93:\n        /* \"#utility.yul\":2976:2979   */\n      0x00\n        /* \"#utility.yul\":2997:3064   */\n      tag_137\n        /* \"#utility.yul\":3061:3063   */\n      0x16\n        /* \"#utility.yul\":3056:3059   */\n      dup4\n        /* \"#utility.yul\":2997:3064   */\n      tag_91\n      jump\t// in\n    tag_137:\n        /* \"#utility.yul\":2990:3064   */\n      swap2\n      pop\n        /* \"#utility.yul\":3073:3166   */\n      tag_138\n        /* \"#utility.yul\":3162:3165   */\n      dup3\n        /* \"#utility.yul\":3073:3166   */\n      tag_92\n      jump\t// in\n    tag_138:\n        /* \"#utility.yul\":3191:3193   */\n      0x20\n        /* \"#utility.yul\":3186:3189   */\n      dup3\n        /* \"#utility.yul\":3182:3194   */\n      add\n        /* \"#utility.yul\":3175:3194   */\n      swap1\n      pop\n        /* \"#utility.yul\":2834:3200   */\n      swap2\n      swap1\n      pop\n      jump\t// out\n        /* \"#utility.yul\":3206:3625   */\n    tag_37:\n        /* \"#utility.yul\":3372:3376   */\n      0x00\n        /* \"#utility.yul\":3410:3412   */\n      0x20\n        /* \"#utility.yul\":3399:3408   */\n      dup3\n        /* \"#utility.yul\":3395:3413   */\n      add\n        /* \"#utility.yul\":3387:3413   */\n      swap1\n      pop\n        /* \"#utility.yul\":3459:3468   */\n      dup2\n        /* \"#utility.yul\":3453:3457   */\n      dup2\n        /* \"#utility.yul\":3449:3469   */\n      sub\n        /* \"#utility.yul\":3445:3446   */\n      0x00\n        /* \"#utility.yul\":3434:3443   */\n      dup4\n        /* \"#utility.yul\":3430:3447   */\n      add\n        /* \"#utility.yul\":3423:3470   */\n      mstore\n        /* \"#utility.yul\":3487:3618   */\n      tag_140\n        /* \"#utility.yul\":3613:3617   */\n      dup2\n        /* \"#utility.yul\":3487:3618   */\n      tag_93\n      jump\t// in\n    tag_140:\n        /* \"#utility.yul\":3479:3618   */\n      swap1\n      pop\n        /* \"#utility.yul\":3206:3625   */\n      swap2\n      swap1\n      pop\n      jump\t// out\n        /* \"#utility.yul\":3631:3802   */\n    tag_94:\n        /* \"#utility.yul\":3771:3794   */\n      0x796f7520617265206e6f7420746865204f776e65720000000000000000000000\n        /* \"#utility.yul\":3767:3768   */\n      0x00\n        /* \"#utility.yul\":3759:3765   */\n      dup3\n        /* \"#utility.yul\":3755:3769   */\n      add\n        /* \"#utility.yul\":3748:3795   */\n      mstore\n        /* \"#utility.yul\":3631:3802   */\n      pop\n      jump\t// out\n        /* \"#utility.yul\":3808:4174   */\n    tag_95:\n        /* \"#utility.yul\":3950:3953   */\n      0x00\n        /* \"#utility.yul\":3971:4038   */\n      tag_143\n        /* \"#utility.yul\":4035:4037   */\n      0x15\n        /* \"#utility.yul\":4030:4033   */\n      dup4\n        /* \"#utility.yul\":3971:4038   */\n      tag_91\n      jump\t// in\n    tag_143:\n        /* \"#utility.yul\":3964:4038   */\n      swap2\n      pop\n        /* \"#utility.yul\":4047:4140   */\n      tag_144\n        /* \"#utility.yul\":4136:4139   */\n      dup3\n        /* \"#utility.yul\":4047:4140   */\n      tag_94\n      jump\t// in\n    tag_144:\n        /* \"#utility.yul\":4165:4167   */\n      0x20\n        /* \"#utility.yul\":4160:4163   */\n      dup3\n        /* \"#utility.yul\":4156:4168   */\n      add\n        /* \"#utility.yul\":4149:4168   */\n      swap1\n      pop\n        /* \"#utility.yul\":3808:4174   */\n      swap2\n      swap1\n      pop\n      jump\t// out\n        /* \"#utility.yul\":4180:4599   */\n    tag_41:\n        /* \"#utility.yul\":4346:4350   */\n      0x00\n        /* \"#utility.yul\":4384:4386   */\n      0x20\n        /* \"#utility.yul\":4373:4382   */\n      dup3\n        /* \"#utility.yul\":4369:4387   */\n      add\n        /* \"#utility.yul\":4361:4387   */\n      swap1\n      pop\n        /* \"#utility.yul\":4433:4442   */\n      dup2\n        /* \"#utility.yul\":4427:4431   */\n      dup2\n        /* \"#utility.yul\":4423:4443   */\n      sub\n        /* \"#utility.yul\":4419:4420   */\n      0x00\n        /* \"#utility.yul\":4408:4417   */\n      dup4\n        /* \"#utility.yul\":4404:4421   */\n      add\n        /* \"#utility.yul\":4397:4444   */\n      mstore\n        /* \"#utility.yul\":4461:4592   */\n      tag_146\n        /* \"#utility.yul\":4587:4591   */\n      dup2\n        /* \"#utility.yul\":4461:4592   */\n      tag_95\n      jump\t// in\n    tag_146:\n        /* \"#utility.yul\":4453:4592   */\n      swap1\n      pop\n        /* \"#utility.yul\":4180:4599   */\n      swap2\n      swap1\n      pop\n      jump\t// out\n        /* \"#utility.yul\":4605:4781   */\n    tag_96:\n        /* \"#utility.yul\":4745:4773   */\n      0x506c617965727320617265206c657373207468616e2027322720000000000000\n        /* \"#utility.yul\":4741:4742   */\n      0x00\n        /* \"#utility.yul\":4733:4739   */\n      dup3\n        /* \"#utility.yul\":4729:4743   */\n      add\n        /* \"#utility.yul\":4722:4774   */\n      mstore\n        /* \"#utility.yul\":4605:4781   */\n      pop\n      jump\t// out\n        /* \"#utility.yul\":4787:5153   */\n    tag_97:\n        /* \"#utility.yul\":4929:4932   */\n      0x00\n        /* \"#utility.yul\":4950:5017   */\n      tag_149\n        /* \"#utility.yul\":5014:5016   */\n      0x1a\n        /* \"#utility.yul\":5009:5012   */\n      dup4\n        /* \"#utility.yul\":4950:5017   */\n      tag_91\n      jump\t// in\n    tag_149:\n        /* \"#utility.yul\":4943:5017   */\n      swap2\n      pop\n        /* \"#utility.yul\":5026:5119   */\n      tag_150\n        /* \"#utility.yul\":5115:5118   */\n      dup3\n        /* \"#utility.yul\":5026:5119   */\n      tag_96\n      jump\t// in\n    tag_150:\n        /* \"#utility.yul\":5144:5146   */\n      0x20\n        /* \"#utility.yul\":5139:5142   */\n      dup3\n        /* \"#utility.yul\":5135:5147   */\n      add\n        /* \"#utility.yul\":5128:5147   */\n      swap1\n      pop\n        /* \"#utility.yul\":4787:5153   */\n      swap2\n      swap1\n      pop\n      jump\t// out\n        /* \"#utility.yul\":5159:5578   */\n    tag_44:\n        /* \"#utility.yul\":5325:5329   */\n      0x00\n        /* \"#utility.yul\":5363:5365   */\n      0x20\n        /* \"#utility.yul\":5352:5361   */\n      dup3\n        /* \"#utility.yul\":5348:5366   */\n      add\n        /* \"#utility.yul\":5340:5366   */\n      swap1\n      pop\n        /* \"#utility.yul\":5412:5421   */\n      dup2\n        /* \"#utility.yul\":5406:5410   */\n      dup2\n        /* \"#utility.yul\":5402:5422   */\n      sub\n        /* \"#utility.yul\":5398:5399   */\n      0x00\n        /* \"#utility.yul\":5387:5396   */\n      dup4\n        /* \"#utility.yul\":5383:5400   */\n      add\n        /* \"#utility.yul\":5376:5423   */\n      mstore\n        /* \"#utility.yul\":5440:5571   */\n      tag_152\n        /* \"#utility.yul\":5566:5570   */\n      dup2\n        /* \"#utility.yul\":5440:5571   */\n      tag_97\n      jump\t// in\n    tag_152:\n        /* \"#utility.yul\":5432:5571   */\n      swap1\n      pop\n        /* \"#utility.yul\":5159:5578   */\n      swap2\n      swap1\n      pop\n      jump\t// out\n        /* \"#utility.yul\":5584:5764   */\n    tag_98:\n        /* \"#utility.yul\":5632:5709   */\n      0x4e487b7100000000000000000000000000000000000000000000000000000000\n        /* \"#utility.yul\":5629:5630   */\n      0x00\n        /* \"#utility.yul\":5622:5710   */\n      mstore\n        /* \"#utility.yul\":5729:5733   */\n      0x12\n        /* \"#utility.yul\":5726:5727   */\n      0x04\n        /* \"#utility.yul\":5719:5734   */\n      mstore\n        /* \"#utility.yul\":5753:5757   */\n      0x24\n        /* \"#utility.yul\":5750:5751   */\n      0x00\n        /* \"#utility.yul\":5743:5758   */\n      revert\n        /* \"#utility.yul\":5770:5946   */\n    tag_48:\n        /* \"#utility.yul\":5802:5803   */\n      0x00\n        /* \"#utility.yul\":5819:5839   */\n      tag_155\n        /* \"#utility.yul\":5837:5838   */\n      dup3\n        /* \"#utility.yul\":5819:5839   */\n      tag_79\n      jump\t// in\n    tag_155:\n        /* \"#utility.yul\":5814:5839   */\n      swap2\n      pop\n        /* \"#utility.yul\":5853:5873   */\n      tag_156\n        /* \"#utility.yul\":5871:5872   */\n      dup4\n        /* \"#utility.yul\":5853:5873   */\n      tag_79\n      jump\t// in\n    tag_156:\n        /* \"#utility.yul\":5848:5873   */\n      swap3\n      pop\n        /* \"#utility.yul\":5892:5893   */\n      dup3\n        /* \"#utility.yul\":5882:5917   */\n      tag_157\n      jumpi\n        /* \"#utility.yul\":5897:5915   */\n      tag_158\n      tag_98\n      jump\t// in\n    tag_158:\n        /* \"#utility.yul\":5882:5917   */\n    tag_157:\n        /* \"#utility.yul\":5938:5939   */\n      dup3\n        /* \"#utility.yul\":5935:5936   */\n      dup3\n        /* \"#utility.yul\":5931:5940   */\n      mod\n        /* \"#utility.yul\":5926:5940   */\n      swap1\n      pop\n        /* \"#utility.yul\":5770:5946   */\n      swap3\n      swap2\n      pop\n      pop\n      jump\t// out\n        /* \"#utility.yul\":5952:6132   */\n    tag_51:\n        /* \"#utility.yul\":6000:6077   */\n      0x4e487b7100000000000000000000000000000000000000000000000000000000\n        /* \"#utility.yul\":5997:5998   */\n      0x00\n        /* \"#utility.yul\":5990:6078   */\n      mstore\n        /* \"#utility.yul\":6097:6101   */\n      0x32\n        /* \"#utility.yul\":6094:6095   */\n      0x04\n        /* \"#utility.yul\":6087:6102   */\n      mstore\n        /* \"#utility.yul\":6121:6125   */\n      0x24\n        /* \"#utility.yul\":6118:6119   */\n      0x00\n        /* \"#utility.yul\":6111:6126   */\n      revert\n        /* \"#utility.yul\":6138:6318   */\n    tag_58:\n        /* \"#utility.yul\":6186:6263   */\n      0x4e487b7100000000000000000000000000000000000000000000000000000000\n        /* \"#utility.yul\":6183:6184   */\n      0x00\n        /* \"#utility.yul\":6176:6264   */\n      mstore\n        /* \"#utility.yul\":6283:6287   */\n      0x41\n        /* \"#utility.yul\":6280:6281   */\n      0x04\n        /* \"#utility.yul\":6273:6288   */\n      mstore\n        /* \"#utility.yul\":6307:6311   */\n      0x24\n        /* \"#utility.yul\":6304:6305   */\n      0x00\n        /* \"#utility.yul\":6297:6312   */\n      revert\n        /* \"#utility.yul\":6324:6502   */\n    tag_99:\n        /* \"#utility.yul\":6464:6494   */\n      0x20796f7520646f6e2774206861766520656e6f75676820657468657200000000\n        /* \"#utility.yul\":6460:6461   */\n      0x00\n        /* \"#utility.yul\":6452:6458   */\n      dup3\n        /* \"#utility.yul\":6448:6462   */\n      add\n        /* \"#utility.yul\":6441:6495   */\n      mstore\n        /* \"#utility.yul\":6324:6502   */\n      pop\n      jump\t// out\n        /* \"#utility.yul\":6508:6874   */\n    tag_100:\n        /* \"#utility.yul\":6650:6653   */\n      0x00\n        /* \"#utility.yul\":6671:6738   */\n      tag_163\n        /* \"#utility.yul\":6735:6737   */\n      0x1c\n        /* \"#utility.yul\":6730:6733   */\n      dup4\n        /* \"#utility.yul\":6671:6738   */\n      tag_91\n      jump\t// in\n    tag_163:\n        /* \"#utility.yul\":6664:6738   */\n      swap2\n      pop\n        /* \"#utility.yul\":6747:6840   */\n      tag_164\n        /* \"#utility.yul\":6836:6839   */\n      dup3\n        /* \"#utility.yul\":6747:6840   */\n      tag_99\n      jump\t// in\n    tag_164:\n        /* \"#utility.yul\":6865:6867   */\n      0x20\n        /* \"#utility.yul\":6860:6863   */\n      dup3\n        /* \"#utility.yul\":6856:6868   */\n      add\n        /* \"#utility.yul\":6849:6868   */\n      swap1\n      pop\n        /* \"#utility.yul\":6508:6874   */\n      swap2\n      swap1\n      pop\n      jump\t// out\n        /* \"#utility.yul\":6880:7299   */\n    tag_65:\n        /* \"#utility.yul\":7046:7050   */\n      0x00\n        /* \"#utility.yul\":7084:7086   */\n      0x20\n        /* \"#utility.yul\":7073:7082   */\n      dup3\n        /* \"#utility.yul\":7069:7087   */\n      add\n        /* \"#utility.yul\":7061:7087   */\n      swap1\n      pop\n        /* \"#utility.yul\":7133:7142   */\n      dup2\n        /* \"#utility.yul\":7127:7131   */\n      dup2\n        /* \"#utility.yul\":7123:7143   */\n      sub\n        /* \"#utility.yul\":7119:7120   */\n      0x00\n        /* \"#utility.yul\":7108:7117   */\n      dup4\n        /* \"#utility.yul\":7104:7121   */\n      add\n        /* \"#utility.yul\":7097:7144   */\n      mstore\n        /* \"#utility.yul\":7161:7292   */\n      tag_166\n        /* \"#utility.yul\":7287:7291   */\n      dup2\n        /* \"#utility.yul\":7161:7292   */\n      tag_100\n      jump\t// in\n    tag_166:\n        /* \"#utility.yul\":7153:7292   */\n      swap1\n      pop\n        /* \"#utility.yul\":6880:7299   */\n      swap2\n      swap1\n      pop\n      jump\t// out\n        /* \"#utility.yul\":7305:7384   */\n    tag_101:\n        /* \"#utility.yul\":7344:7351   */\n      0x00\n        /* \"#utility.yul\":7373:7378   */\n      dup2\n        /* \"#utility.yul\":7362:7378   */\n      swap1\n      pop\n        /* \"#utility.yul\":7305:7384   */\n      swap2\n      swap1\n      pop\n      jump\t// out\n        /* \"#utility.yul\":7390:7547   */\n    tag_102:\n        /* \"#utility.yul\":7495:7540   */\n      tag_169\n        /* \"#utility.yul\":7515:7539   */\n      tag_170\n        /* \"#utility.yul\":7533:7538   */\n      dup3\n        /* \"#utility.yul\":7515:7539   */\n      tag_79\n      jump\t// in\n    tag_170:\n        /* \"#utility.yul\":7495:7540   */\n      tag_101\n      jump\t// in\n    tag_169:\n        /* \"#utility.yul\":7490:7493   */\n      dup3\n        /* \"#utility.yul\":7483:7541   */\n      mstore\n        /* \"#utility.yul\":7390:7547   */\n      pop\n      pop\n      jump\t// out\n        /* \"#utility.yul\":7553:8091   */\n    tag_71:\n        /* \"#utility.yul\":7721:7724   */\n      0x00\n        /* \"#utility.yul\":7736:7811   */\n      tag_172\n        /* \"#utility.yul\":7807:7810   */\n      dup3\n        /* \"#utility.yul\":7798:7804   */\n      dup7\n        /* \"#utility.yul\":7736:7811   */\n      tag_102\n      jump\t// in\n    tag_172:\n        /* \"#utility.yul\":7836:7838   */\n      0x20\n        /* \"#utility.yul\":7831:7834   */\n      dup3\n        /* \"#utility.yul\":7827:7839   */\n      add\n        /* \"#utility.yul\":7820:7839   */\n      swap2\n      pop\n        /* \"#utility.yul\":7849:7924   */\n      tag_173\n        /* \"#utility.yul\":7920:7923   */\n      dup3\n        /* \"#utility.yul\":7911:7917   */\n      dup6\n        /* \"#utility.yul\":7849:7924   */\n      tag_102\n      jump\t// in\n    tag_173:\n        /* \"#utility.yul\":7949:7951   */\n      0x20\n        /* \"#utility.yul\":7944:7947   */\n      dup3\n        /* \"#utility.yul\":7940:7952   */\n      add\n        /* \"#utility.yul\":7933:7952   */\n      swap2\n      pop\n        /* \"#utility.yul\":7962:8037   */\n      tag_174\n        /* \"#utility.yul\":8033:8036   */\n      dup3\n        /* \"#utility.yul\":8024:8030   */\n      dup5\n        /* \"#utility.yul\":7962:8037   */\n      tag_102\n      jump\t// in\n    tag_174:\n        /* \"#utility.yul\":8062:8064   */\n      0x20\n        /* \"#utility.yul\":8057:8060   */\n      dup3\n        /* \"#utility.yul\":8053:8065   */\n      add\n        /* \"#utility.yul\":8046:8065   */\n      swap2\n      pop\n        /* \"#utility.yul\":8082:8085   */\n      dup2\n        /* \"#utility.yul\":8075:8085   */\n      swap1\n      pop\n        /* \"#utility.yul\":7553:8091   */\n      swap5\n      swap4\n      pop\n      pop\n      pop\n      pop\n      jump\t// out\n\n    auxdata: 0xa26469706673582212209ec9fcbaa8372426688eb11a03b9c04aff96c11fe3156b4fb0d1a4dfa7af5b4364736f6c63430008140033\n}\n",
				"bytecode": {
					"linkReferences": {},
					"object": "608060405234801561000f575f80fd5b50335f806101000a81548173ffffffffffffffffffffffffffffffffffffffff021916908373ffffffffffffffffffffffffffffffffffffffff160217905550610a1c8061005c5f395ff3fe608060405260043610610054575f3560e01c806312065fe01461005857806333a99e04146100825780638da5cb5b14610098578063d11711a2146100c2578063dfbf53ae146100cc578063f71d96cb146100f6575b5f80fd5b348015610063575f80fd5b5061006c610132565b6040516100799190610620565b60405180910390f35b34801561008d575f80fd5b506100966101c7565b005b3480156100a3575f80fd5b506100ac610406565b6040516100b99190610678565b60405180910390f35b6100ca610429565b005b3480156100d7575f80fd5b506100e06104ce565b6040516100ed91906106b1565b60405180910390f35b348015610101575f80fd5b5061011c600480360381019061011791906106f8565b6104f3565b60405161012991906106b1565b60405180910390f35b5f805f9054906101000a900473ffffffffffffffffffffffffffffffffffffffff1673ffffffffffffffffffffffffffffffffffffffff163373ffffffffffffffffffffffffffffffffffffffff16146101c1576040517f08c379a00000000000000000000000000000000000000000000000000000000081526004016101b89061077d565b60405180910390fd5b47905090565b3373ffffffffffffffffffffffffffffffffffffffff165f8054906101000a900473ffffffffffffffffffffffffffffffffffffffff1673ffffffffffffffffffffffffffffffffffffffff1614610254576040517f08c379a000000000000000000000000000000000000000000000000000000000815260040161024b906107e5565b60405180910390fd5b6002600180549050101561029d576040517f08c379a00000000000000000000000000000000000000000000000000000000081526004016102949061084d565b60405180910390fd5b5f6102a661052e565b90505f600180549050826102ba9190610898565b9050600181815481106102d0576102cf6108c8565b5b905f5260205f20015f9054906101000a900473ffffffffffffffffffffffffffffffffffffffff1660025f6101000a81548173ffffffffffffffffffffffffffffffffffffffff021916908373ffffffffffffffffffffffffffffffffffffffff16021790555060025f9054906101000a900473ffffffffffffffffffffffffffffffffffffffff1673ffffffffffffffffffffffffffffffffffffffff166108fc61037a610132565b90811502906040515f60405180830381858888f193505050501580156103a2573d5f803e3d5ffd5b505f67ffffffffffffffff8111156103bd576103bc6108f5565b5b6040519080825280602002602001820160405280156103eb5781602001602082028036833780820191505090505b5060019080519060200190610401929190610566565b505050565b5f8054906101000a900473ffffffffffffffffffffffffffffffffffffffff1681565b6064341461046c576040517f08c379a00000000000000000000000000000000000000000000000000000000081526004016104639061096c565b60405180910390fd5b600133908060018154018082558091505060019003905f5260205f20015f9091909190916101000a81548173ffffffffffffffffffffffffffffffffffffffff021916908373ffffffffffffffffffffffffffffffffffffffff160217905550565b60025f9054906101000a900473ffffffffffffffffffffffffffffffffffffffff1681565b60018181548110610502575f80fd5b905f5260205f20015f915054906101000a900473ffffffffffffffffffffffffffffffffffffffff1681565b5f4442600180549050604051602001610549939291906109aa565b604051602081830303815290604052805190602001205f1c905090565b828054828255905f5260205f209081019282156105dc579160200282015b828111156105db578251825f6101000a81548173ffffffffffffffffffffffffffffffffffffffff021916908373ffffffffffffffffffffffffffffffffffffffff16021790555091602001919060010190610584565b5b5090506105e991906105ed565b5090565b5b80821115610604575f815f9055506001016105ee565b5090565b5f819050919050565b61061a81610608565b82525050565b5f6020820190506106335f830184610611565b92915050565b5f73ffffffffffffffffffffffffffffffffffffffff82169050919050565b5f61066282610639565b9050919050565b61067281610658565b82525050565b5f60208201905061068b5f830184610669565b92915050565b5f61069b82610639565b9050919050565b6106ab81610691565b82525050565b5f6020820190506106c45f8301846106a2565b92915050565b5f80fd5b6106d781610608565b81146106e1575f80fd5b50565b5f813590506106f2816106ce565b92915050565b5f6020828403121561070d5761070c6106ca565b5b5f61071a848285016106e4565b91505092915050565b5f82825260208201905092915050565b7f796f7520617265206e6f7420746865204f776e657221000000000000000000005f82015250565b5f610767601683610723565b915061077282610733565b602082019050919050565b5f6020820190508181035f8301526107948161075b565b9050919050565b7f796f7520617265206e6f7420746865204f776e657200000000000000000000005f82015250565b5f6107cf601583610723565b91506107da8261079b565b602082019050919050565b5f6020820190508181035f8301526107fc816107c3565b9050919050565b7f506c617965727320617265206c657373207468616e20273227200000000000005f82015250565b5f610837601a83610723565b915061084282610803565b602082019050919050565b5f6020820190508181035f8301526108648161082b565b9050919050565b7f4e487b71000000000000000000000000000000000000000000000000000000005f52601260045260245ffd5b5f6108a282610608565b91506108ad83610608565b9250826108bd576108bc61086b565b5b828206905092915050565b7f4e487b71000000000000000000000000000000000000000000000000000000005f52603260045260245ffd5b7f4e487b71000000000000000000000000000000000000000000000000000000005f52604160045260245ffd5b7f20796f7520646f6e2774206861766520656e6f756768206574686572000000005f82015250565b5f610956601c83610723565b915061096182610922565b602082019050919050565b5f6020820190508181035f8301526109838161094a565b9050919050565b5f819050919050565b6109a461099f82610608565b61098a565b82525050565b5f6109b58286610993565b6020820191506109c58285610993565b6020820191506109d58284610993565b60208201915081905094935050505056fea26469706673582212209ec9fcbaa8372426688eb11a03b9c04aff96c11fe3156b4fb0d1a4dfa7af5b4364736f6c63430008140033",
					"opcodes": "PUSH1 0x80 PUSH1 0x40 MSTORE CALLVALUE DUP1 ISZERO PUSH2 0xF JUMPI PUSH0 DUP1 REVERT JUMPDEST POP CALLER PUSH0 DUP1 PUSH2 0x100 EXP DUP2 SLOAD DUP2 PUSH20 0xFFFFFFFFFFFFFFFFFFFFFFFFFFFFFFFFFFFFFFFF MUL NOT AND SWAP1 DUP4 PUSH20 0xFFFFFFFFFFFFFFFFFFFFFFFFFFFFFFFFFFFFFFFF AND MUL OR SWAP1 SSTORE POP PUSH2 0xA1C DUP1 PUSH2 0x5C PUSH0 CODECOPY PUSH0 RETURN INVALID PUSH1 0x80 PUSH1 0x40 MSTORE PUSH1 0x4 CALLDATASIZE LT PUSH2 0x54 JUMPI PUSH0 CALLDATALOAD PUSH1 0xE0 SHR DUP1 PUSH4 0x12065FE0 EQ PUSH2 0x58 JUMPI DUP1 PUSH4 0x33A99E04 EQ PUSH2 0x82 JUMPI DUP1 PUSH4 0x8DA5CB5B EQ PUSH2 0x98 JUMPI DUP1 PUSH4 0xD11711A2 EQ PUSH2 0xC2 JUMPI DUP1 PUSH4 0xDFBF53AE EQ PUSH2 0xCC JUMPI DUP1 PUSH4 0xF71D96CB EQ PUSH2 0xF6 JUMPI JUMPDEST PUSH0 DUP1 REVERT JUMPDEST CALLVALUE DUP1 ISZERO PUSH2 0x63 JUMPI PUSH0 DUP1 REVERT JUMPDEST POP PUSH2 0x6C PUSH2 0x132 JUMP JUMPDEST PUSH1 0x40 MLOAD PUSH2 0x79 SWAP2 SWAP1 PUSH2 0x620 JUMP JUMPDEST PUSH1 0x40 MLOAD DUP1 SWAP2 SUB SWAP1 RETURN JUMPDEST CALLVALUE DUP1 ISZERO PUSH2 0x8D JUMPI PUSH0 DUP1 REVERT JUMPDEST POP PUSH2 0x96 PUSH2 0x1C7 JUMP JUMPDEST STOP JUMPDEST CALLVALUE DUP1 ISZERO PUSH2 0xA3 JUMPI PUSH0 DUP1 REVERT JUMPDEST POP PUSH2 0xAC PUSH2 0x406 JUMP JUMPDEST PUSH1 0x40 MLOAD PUSH2 0xB9 SWAP2 SWAP1 PUSH2 0x678 JUMP JUMPDEST PUSH1 0x40 MLOAD DUP1 SWAP2 SUB SWAP1 RETURN JUMPDEST PUSH2 0xCA PUSH2 0x429 JUMP JUMPDEST STOP JUMPDEST CALLVALUE DUP1 ISZERO PUSH2 0xD7 JUMPI PUSH0 DUP1 REVERT JUMPDEST POP PUSH2 0xE0 PUSH2 0x4CE JUMP JUMPDEST PUSH1 0x40 MLOAD PUSH2 0xED SWAP2 SWAP1 PUSH2 0x6B1 JUMP JUMPDEST PUSH1 0x40 MLOAD DUP1 SWAP2 SUB SWAP1 RETURN JUMPDEST CALLVALUE DUP1 ISZERO PUSH2 0x101 JUMPI PUSH0 DUP1 REVERT JUMPDEST POP PUSH2 0x11C PUSH1 0x4 DUP1 CALLDATASIZE SUB DUP2 ADD SWAP1 PUSH2 0x117 SWAP2 SWAP1 PUSH2 0x6F8 JUMP JUMPDEST PUSH2 0x4F3 JUMP JUMPDEST PUSH1 0x40 MLOAD PUSH2 0x129 SWAP2 SWAP1 PUSH2 0x6B1 JUMP JUMPDEST PUSH1 0x40 MLOAD DUP1 SWAP2 SUB SWAP1 RETURN JUMPDEST PUSH0 DUP1 PUSH0 SWAP1 SLOAD SWAP1 PUSH2 0x100 EXP SWAP1 DIV PUSH20 0xFFFFFFFFFFFFFFFFFFFFFFFFFFFFFFFFFFFFFFFF AND PUSH20 0xFFFFFFFFFFFFFFFFFFFFFFFFFFFFFFFFFFFFFFFF AND CALLER PUSH20 0xFFFFFFFFFFFFFFFFFFFFFFFFFFFFFFFFFFFFFFFF AND EQ PUSH2 0x1C1 JUMPI PUSH1 0x40 MLOAD PUSH32 0x8C379A000000000000000000000000000000000000000000000000000000000 DUP2 MSTORE PUSH1 0x4 ADD PUSH2 0x1B8 SWAP1 PUSH2 0x77D JUMP JUMPDEST PUSH1 0x40 MLOAD DUP1 SWAP2 SUB SWAP1 REVERT JUMPDEST SELFBALANCE SWAP1 POP SWAP1 JUMP JUMPDEST CALLER PUSH20 0xFFFFFFFFFFFFFFFFFFFFFFFFFFFFFFFFFFFFFFFF AND PUSH0 DUP1 SLOAD SWAP1 PUSH2 0x100 EXP SWAP1 DIV PUSH20 0xFFFFFFFFFFFFFFFFFFFFFFFFFFFFFFFFFFFFFFFF AND PUSH20 0xFFFFFFFFFFFFFFFFFFFFFFFFFFFFFFFFFFFFFFFF AND EQ PUSH2 0x254 JUMPI PUSH1 0x40 MLOAD PUSH32 0x8C379A000000000000000000000000000000000000000000000000000000000 DUP2 MSTORE PUSH1 0x4 ADD PUSH2 0x24B SWAP1 PUSH2 0x7E5 JUMP JUMPDEST PUSH1 0x40 MLOAD DUP1 SWAP2 SUB SWAP1 REVERT JUMPDEST PUSH1 0x2 PUSH1 0x1 DUP1 SLOAD SWAP1 POP LT ISZERO PUSH2 0x29D JUMPI PUSH1 0x40 MLOAD PUSH32 0x8C379A000000000000000000000000000000000000000000000000000000000 DUP2 MSTORE PUSH1 0x4 ADD PUSH2 0x294 SWAP1 PUSH2 0x84D JUMP JUMPDEST PUSH1 0x40 MLOAD DUP1 SWAP2 SUB SWAP1 REVERT JUMPDEST PUSH0 PUSH2 0x2A6 PUSH2 0x52E JUMP JUMPDEST SWAP1 POP PUSH0 PUSH1 0x1 DUP1 SLOAD SWAP1 POP DUP3 PUSH2 0x2BA SWAP2 SWAP1 PUSH2 0x898 JUMP JUMPDEST SWAP1 POP PUSH1 0x1 DUP2 DUP2 SLOAD DUP2 LT PUSH2 0x2D0 JUMPI PUSH2 0x2CF PUSH2 0x8C8 JUMP JUMPDEST JUMPDEST SWAP1 PUSH0 MSTORE PUSH1 0x20 PUSH0 KECCAK256 ADD PUSH0 SWAP1 SLOAD SWAP1 PUSH2 0x100 EXP SWAP1 DIV PUSH20 0xFFFFFFFFFFFFFFFFFFFFFFFFFFFFFFFFFFFFFFFF AND PUSH1 0x2 PUSH0 PUSH2 0x100 EXP DUP2 SLOAD DUP2 PUSH20 0xFFFFFFFFFFFFFFFFFFFFFFFFFFFFFFFFFFFFFFFF MUL NOT AND SWAP1 DUP4 PUSH20 0xFFFFFFFFFFFFFFFFFFFFFFFFFFFFFFFFFFFFFFFF AND MUL OR SWAP1 SSTORE POP PUSH1 0x2 PUSH0 SWAP1 SLOAD SWAP1 PUSH2 0x100 EXP SWAP1 DIV PUSH20 0xFFFFFFFFFFFFFFFFFFFFFFFFFFFFFFFFFFFFFFFF AND PUSH20 0xFFFFFFFFFFFFFFFFFFFFFFFFFFFFFFFFFFFFFFFF AND PUSH2 0x8FC PUSH2 0x37A PUSH2 0x132 JUMP JUMPDEST SWAP1 DUP2 ISZERO MUL SWAP1 PUSH1 0x40 MLOAD PUSH0 PUSH1 0x40 MLOAD DUP1 DUP4 SUB DUP2 DUP6 DUP9 DUP9 CALL SWAP4 POP POP POP POP ISZERO DUP1 ISZERO PUSH2 0x3A2 JUMPI RETURNDATASIZE PUSH0 DUP1 RETURNDATACOPY RETURNDATASIZE PUSH0 REVERT JUMPDEST POP PUSH0 PUSH8 0xFFFFFFFFFFFFFFFF DUP2 GT ISZERO PUSH2 0x3BD JUMPI PUSH2 0x3BC PUSH2 0x8F5 JUMP JUMPDEST JUMPDEST PUSH1 0x40 MLOAD SWAP1 DUP1 DUP3 MSTORE DUP1 PUSH1 0x20 MUL PUSH1 0x20 ADD DUP3 ADD PUSH1 0x40 MSTORE DUP1 ISZERO PUSH2 0x3EB JUMPI DUP2 PUSH1 0x20 ADD PUSH1 0x20 DUP3 MUL DUP1 CALLDATASIZE DUP4 CALLDATACOPY DUP1 DUP3 ADD SWAP2 POP POP SWAP1 POP JUMPDEST POP PUSH1 0x1 SWAP1 DUP1 MLOAD SWAP1 PUSH1 0x20 ADD SWAP1 PUSH2 0x401 SWAP3 SWAP2 SWAP1 PUSH2 0x566 JUMP JUMPDEST POP POP POP JUMP JUMPDEST PUSH0 DUP1 SLOAD SWAP1 PUSH2 0x100 EXP SWAP1 DIV PUSH20 0xFFFFFFFFFFFFFFFFFFFFFFFFFFFFFFFFFFFFFFFF AND DUP2 JUMP JUMPDEST PUSH1 0x64 CALLVALUE EQ PUSH2 0x46C JUMPI PUSH1 0x40 MLOAD PUSH32 0x8C379A000000000000000000000000000000000000000000000000000000000 DUP2 MSTORE PUSH1 0x4 ADD PUSH2 0x463 SWAP1 PUSH2 0x96C JUMP JUMPDEST PUSH1 0x40 MLOAD DUP1 SWAP2 SUB SWAP1 REVERT JUMPDEST PUSH1 0x1 CALLER SWAP1 DUP1 PUSH1 0x1 DUP2 SLOAD ADD DUP1 DUP3 SSTORE DUP1 SWAP2 POP POP PUSH1 0x1 SWAP1 SUB SWAP1 PUSH0 MSTORE PUSH1 0x20 PUSH0 KECCAK256 ADD PUSH0 SWAP1 SWAP2 SWAP1 SWAP2 SWAP1 SWAP2 PUSH2 0x100 EXP DUP2 SLOAD DUP2 PUSH20 0xFFFFFFFFFFFFFFFFFFFFFFFFFFFFFFFFFFFFFFFF MUL NOT AND SWAP1 DUP4 PUSH20 0xFFFFFFFFFFFFFFFFFFFFFFFFFFFFFFFFFFFFFFFF AND MUL OR SWAP1 SSTORE POP JUMP JUMPDEST PUSH1 0x2 PUSH0 SWAP1 SLOAD SWAP1 PUSH2 0x100 EXP SWAP1 DIV PUSH20 0xFFFFFFFFFFFFFFFFFFFFFFFFFFFFFFFFFFFFFFFF AND DUP2 JUMP JUMPDEST PUSH1 0x1 DUP2 DUP2 SLOAD DUP2 LT PUSH2 0x502 JUMPI PUSH0 DUP1 REVERT JUMPDEST SWAP1 PUSH0 MSTORE PUSH1 0x20 PUSH0 KECCAK256 ADD PUSH0 SWAP2 POP SLOAD SWAP1 PUSH2 0x100 EXP SWAP1 DIV PUSH20 0xFFFFFFFFFFFFFFFFFFFFFFFFFFFFFFFFFFFFFFFF AND DUP2 JUMP JUMPDEST PUSH0 PREVRANDAO TIMESTAMP PUSH1 0x1 DUP1 SLOAD SWAP1 POP PUSH1 0x40 MLOAD PUSH1 0x20 ADD PUSH2 0x549 SWAP4 SWAP3 SWAP2 SWAP1 PUSH2 0x9AA JUMP JUMPDEST PUSH1 0x40 MLOAD PUSH1 0x20 DUP2 DUP4 SUB SUB DUP2 MSTORE SWAP1 PUSH1 0x40 MSTORE DUP1 MLOAD SWAP1 PUSH1 0x20 ADD KECCAK256 PUSH0 SHR SWAP1 POP SWAP1 JUMP JUMPDEST DUP3 DUP1 SLOAD DUP3 DUP3 SSTORE SWAP1 PUSH0 MSTORE PUSH1 0x20 PUSH0 KECCAK256 SWAP1 DUP2 ADD SWAP3 DUP3 ISZERO PUSH2 0x5DC JUMPI SWAP2 PUSH1 0x20 MUL DUP3 ADD JUMPDEST DUP3 DUP2 GT ISZERO PUSH2 0x5DB JUMPI DUP3 MLOAD DUP3 PUSH0 PUSH2 0x100 EXP DUP2 SLOAD DUP2 PUSH20 0xFFFFFFFFFFFFFFFFFFFFFFFFFFFFFFFFFFFFFFFF MUL NOT AND SWAP1 DUP4 PUSH20 0xFFFFFFFFFFFFFFFFFFFFFFFFFFFFFFFFFFFFFFFF AND MUL OR SWAP1 SSTORE POP SWAP2 PUSH1 0x20 ADD SWAP2 SWAP1 PUSH1 0x1 ADD SWAP1 PUSH2 0x584 JUMP JUMPDEST JUMPDEST POP SWAP1 POP PUSH2 0x5E9 SWAP2 SWAP1 PUSH2 0x5ED JUMP JUMPDEST POP SWAP1 JUMP JUMPDEST JUMPDEST DUP1 DUP3 GT ISZERO PUSH2 0x604 JUMPI PUSH0 DUP2 PUSH0 SWAP1 SSTORE POP PUSH1 0x1 ADD PUSH2 0x5EE JUMP JUMPDEST POP SWAP1 JUMP JUMPDEST PUSH0 DUP2 SWAP1 POP SWAP2 SWAP1 POP JUMP JUMPDEST PUSH2 0x61A DUP2 PUSH2 0x608 JUMP JUMPDEST DUP3 MSTORE POP POP JUMP JUMPDEST PUSH0 PUSH1 0x20 DUP3 ADD SWAP1 POP PUSH2 0x633 PUSH0 DUP4 ADD DUP5 PUSH2 0x611 JUMP JUMPDEST SWAP3 SWAP2 POP POP JUMP JUMPDEST PUSH0 PUSH20 0xFFFFFFFFFFFFFFFFFFFFFFFFFFFFFFFFFFFFFFFF DUP3 AND SWAP1 POP SWAP2 SWAP1 POP JUMP JUMPDEST PUSH0 PUSH2 0x662 DUP3 PUSH2 0x639 JUMP JUMPDEST SWAP1 POP SWAP2 SWAP1 POP JUMP JUMPDEST PUSH2 0x672 DUP2 PUSH2 0x658 JUMP JUMPDEST DUP3 MSTORE POP POP JUMP JUMPDEST PUSH0 PUSH1 0x20 DUP3 ADD SWAP1 POP PUSH2 0x68B PUSH0 DUP4 ADD DUP5 PUSH2 0x669 JUMP JUMPDEST SWAP3 SWAP2 POP POP JUMP JUMPDEST PUSH0 PUSH2 0x69B DUP3 PUSH2 0x639 JUMP JUMPDEST SWAP1 POP SWAP2 SWAP1 POP JUMP JUMPDEST PUSH2 0x6AB DUP2 PUSH2 0x691 JUMP JUMPDEST DUP3 MSTORE POP POP JUMP JUMPDEST PUSH0 PUSH1 0x20 DUP3 ADD SWAP1 POP PUSH2 0x6C4 PUSH0 DUP4 ADD DUP5 PUSH2 0x6A2 JUMP JUMPDEST SWAP3 SWAP2 POP POP JUMP JUMPDEST PUSH0 DUP1 REVERT JUMPDEST PUSH2 0x6D7 DUP2 PUSH2 0x608 JUMP JUMPDEST DUP2 EQ PUSH2 0x6E1 JUMPI PUSH0 DUP1 REVERT JUMPDEST POP JUMP JUMPDEST PUSH0 DUP2 CALLDATALOAD SWAP1 POP PUSH2 0x6F2 DUP2 PUSH2 0x6CE JUMP JUMPDEST SWAP3 SWAP2 POP POP JUMP JUMPDEST PUSH0 PUSH1 0x20 DUP3 DUP5 SUB SLT ISZERO PUSH2 0x70D JUMPI PUSH2 0x70C PUSH2 0x6CA JUMP JUMPDEST JUMPDEST PUSH0 PUSH2 0x71A DUP5 DUP3 DUP6 ADD PUSH2 0x6E4 JUMP JUMPDEST SWAP2 POP POP SWAP3 SWAP2 POP POP JUMP JUMPDEST PUSH0 DUP3 DUP3 MSTORE PUSH1 0x20 DUP3 ADD SWAP1 POP SWAP3 SWAP2 POP POP JUMP JUMPDEST PUSH32 0x796F7520617265206E6F7420746865204F776E65722100000000000000000000 PUSH0 DUP3 ADD MSTORE POP JUMP JUMPDEST PUSH0 PUSH2 0x767 PUSH1 0x16 DUP4 PUSH2 0x723 JUMP JUMPDEST SWAP2 POP PUSH2 0x772 DUP3 PUSH2 0x733 JUMP JUMPDEST PUSH1 0x20 DUP3 ADD SWAP1 POP SWAP2 SWAP1 POP JUMP JUMPDEST PUSH0 PUSH1 0x20 DUP3 ADD SWAP1 POP DUP2 DUP2 SUB PUSH0 DUP4 ADD MSTORE PUSH2 0x794 DUP2 PUSH2 0x75B JUMP JUMPDEST SWAP1 POP SWAP2 SWAP1 POP JUMP JUMPDEST PUSH32 0x796F7520617265206E6F7420746865204F776E65720000000000000000000000 PUSH0 DUP3 ADD MSTORE POP JUMP JUMPDEST PUSH0 PUSH2 0x7CF PUSH1 0x15 DUP4 PUSH2 0x723 JUMP JUMPDEST SWAP2 POP PUSH2 0x7DA DUP3 PUSH2 0x79B JUMP JUMPDEST PUSH1 0x20 DUP3 ADD SWAP1 POP SWAP2 SWAP1 POP JUMP JUMPDEST PUSH0 PUSH1 0x20 DUP3 ADD SWAP1 POP DUP2 DUP2 SUB PUSH0 DUP4 ADD MSTORE PUSH2 0x7FC DUP2 PUSH2 0x7C3 JUMP JUMPDEST SWAP1 POP SWAP2 SWAP1 POP JUMP JUMPDEST PUSH32 0x506C617965727320617265206C657373207468616E2027322720000000000000 PUSH0 DUP3 ADD MSTORE POP JUMP JUMPDEST PUSH0 PUSH2 0x837 PUSH1 0x1A DUP4 PUSH2 0x723 JUMP JUMPDEST SWAP2 POP PUSH2 0x842 DUP3 PUSH2 0x803 JUMP JUMPDEST PUSH1 0x20 DUP3 ADD SWAP1 POP SWAP2 SWAP1 POP JUMP JUMPDEST PUSH0 PUSH1 0x20 DUP3 ADD SWAP1 POP DUP2 DUP2 SUB PUSH0 DUP4 ADD MSTORE PUSH2 0x864 DUP2 PUSH2 0x82B JUMP JUMPDEST SWAP1 POP SWAP2 SWAP1 POP JUMP JUMPDEST PUSH32 0x4E487B7100000000000000000000000000000000000000000000000000000000 PUSH0 MSTORE PUSH1 0x12 PUSH1 0x4 MSTORE PUSH1 0x24 PUSH0 REVERT JUMPDEST PUSH0 PUSH2 0x8A2 DUP3 PUSH2 0x608 JUMP JUMPDEST SWAP2 POP PUSH2 0x8AD DUP4 PUSH2 0x608 JUMP JUMPDEST SWAP3 POP DUP3 PUSH2 0x8BD JUMPI PUSH2 0x8BC PUSH2 0x86B JUMP JUMPDEST JUMPDEST DUP3 DUP3 MOD SWAP1 POP SWAP3 SWAP2 POP POP JUMP JUMPDEST PUSH32 0x4E487B7100000000000000000000000000000000000000000000000000000000 PUSH0 MSTORE PUSH1 0x32 PUSH1 0x4 MSTORE PUSH1 0x24 PUSH0 REVERT JUMPDEST PUSH32 0x4E487B7100000000000000000000000000000000000000000000000000000000 PUSH0 MSTORE PUSH1 0x41 PUSH1 0x4 MSTORE PUSH1 0x24 PUSH0 REVERT JUMPDEST PUSH32 0x20796F7520646F6E2774206861766520656E6F75676820657468657200000000 PUSH0 DUP3 ADD MSTORE POP JUMP JUMPDEST PUSH0 PUSH2 0x956 PUSH1 0x1C DUP4 PUSH2 0x723 JUMP JUMPDEST SWAP2 POP PUSH2 0x961 DUP3 PUSH2 0x922 JUMP JUMPDEST PUSH1 0x20 DUP3 ADD SWAP1 POP SWAP2 SWAP1 POP JUMP JUMPDEST PUSH0 PUSH1 0x20 DUP3 ADD SWAP1 POP DUP2 DUP2 SUB PUSH0 DUP4 ADD MSTORE PUSH2 0x983 DUP2 PUSH2 0x94A JUMP JUMPDEST SWAP1 POP SWAP2 SWAP1 POP JUMP JUMPDEST PUSH0 DUP2 SWAP1 POP SWAP2 SWAP1 POP JUMP JUMPDEST PUSH2 0x9A4 PUSH2 0x99F DUP3 PUSH2 0x608 JUMP JUMPDEST PUSH2 0x98A JUMP JUMPDEST DUP3 MSTORE POP POP JUMP JUMPDEST PUSH0 PUSH2 0x9B5 DUP3 DUP7 PUSH2 0x993 JUMP JUMPDEST PUSH1 0x20 DUP3 ADD SWAP2 POP PUSH2 0x9C5 DUP3 DUP6 PUSH2 0x993 JUMP JUMPDEST PUSH1 0x20 DUP3 ADD SWAP2 POP PUSH2 0x9D5 DUP3 DUP5 PUSH2 0x993 JUMP JUMPDEST PUSH1 0x20 DUP3 ADD SWAP2 POP DUP2 SWAP1 POP SWAP5 SWAP4 POP POP POP POP JUMP INVALID LOG2 PUSH5 0x6970667358 0x22 SLT KECCAK256 SWAP15 0xC9 0xFC 0xBA 0xA8 CALLDATACOPY 0x24 0x26 PUSH9 0x8EB11A03B9C04AFF96 0xC1 0x1F 0xE3 ISZERO PUSH12 0x4FB0D1A4DFA7AF5B4364736F PUSH13 0x63430008140033000000000000 "
				},
				"gasEstimates": {
					"creation": {
						"codeDepositCost": "517600",
						"executionCost": "24812",
						"totalCost": "542412"
					},
					"external": {
						"getBalance()": "2576",
						"owner()": "2527",
						"participate()": "48760",
						"players(uint256)": "5032",
						"selectWinner()": "infinite",
						"winner()": "2574"
					},
					"internal": {
						"random()": "infinite"
					}
				},
				"methodIdentifiers": {
					"getBalance()": "12065fe0",
					"owner()": "8da5cb5b",
					"participate()": "d11711a2",
					"players(uint256)": "f71d96cb",
					"selectWinner()": "33a99e04",
					"winner()": "dfbf53ae"
				}
			},
			"storageLayout": {
				"storage": [
					{
						"astId": 3,
						"contract": "contracts/Lottery.sol:Lottery",
						"label": "owner",
						"offset": 0,
						"slot": "0",
						"type": "t_address"
					},
					{
						"astId": 6,
						"contract": "contracts/Lottery.sol:Lottery",
						"label": "players",
						"offset": 0,
						"slot": "1",
						"type": "t_array(t_address_payable)dyn_storage"
					},
					{
						"astId": 8,
						"contract": "contracts/Lottery.sol:Lottery",
						"label": "winner",
						"offset": 0,
						"slot": "2",
						"type": "t_address_payable"
					}
				],
				"types": {
					"t_address": {
						"encoding": "inplace",
						"label": "address",
						"numberOfBytes": "20"
					},
					"t_address_payable": {
						"encoding": "inplace",
						"label": "address payable",
						"numberOfBytes": "20"
					},
					"t_array(t_address_payable)dyn_storage": {
						"base": "t_address_payable",
						"encoding": "dynamic_array",
						"label": "address payable[]",
						"numberOfBytes": "32"
					}
				}
			},
			"userdoc": {
				"kind": "user",
				"methods": {},
				"version": 1
			}
		}
	}
}